:10017900010800010C00010D00010B00C180C181C3
:040189000209000067
:0400F8007F147E00F3
:1000FC00E4FDFCC3ED9FEC9E5015E4FBFA0BBB003A
:0F010C00010ABA07F8BBD0F50DBD00010C80E465
:01011B0022C1
:0F018E00750C14750B14D292C293D294C29522A1
:0F019D00750C14750B14C292D293C294D2952292
:0F01AC00E4F50C750B0CC292D293D294C295223B
:0F01BB00750C0CE4F50BC294D295D292C293222C
:0E01CA00E4F50CF50BC294C295C292C29322CA
:10013D00300118E508D3950C5004D2968002C29672
:0E014D00E508C394144006E4F50822C2962289
:10015B00300018E50DD3950B5004D2978002C2974F
:0E016B00E50DC394144006E4F50D22C2972260
:03000B0002011CD3
:10011C00C0E0C0D0758CFC758A18050AE50A70021F
:10012C0005090508050D12013D12015BD0D0D0E088
:01013C003290
:10009A00E4F590E4F97F017E001200FC20B2F40935
:1000AA00B932F2C2A37F327E001200FCD2A3758954
:1000BA0001758CFC758A18D28CD2A9D2AF30B408DB
:1000CA0030B5051201CA80F530B40920B50612010F
:1000DA00BB1200F830B50920B4061201AC1200F8C0
:0E00EA0020B5DA20B4D712018E1200F880CFB4
:0300000002000EED
:0C000E00787FE4F6D8FD758120020055D3
:10001A0002009AE493A3F8E493A34003F68001F262
:10002A0008DFF48029E493A3F85407240CC8C333E7
:10003A00C4540F4420C8834004F456800146F6DFB6
:10004A00E4800B0102040810204080900179E47ECC
:10005A00019360BCA3FF543F30E509541FFEE493AB
:10006A00A360010ECF54C025E060A840B8E493A372
:10007A00FAE493A3F8E493A3C8C582C8CAC583CA9D
:10008A00F0A3C8C582C8CAC583CADFE9DEE780BE55
:01018D000071
:00000001FF
