:1001CE00010800010D00010E00010C00C180C1816B
:0701DE0002090000010B0102
:04014D007F287E0089
:10015100E4FDFCC3ED9FEC9E5015E4FBFA0BBB00E4
:0F016100010ABA07F8BBD0F50DBD00010C80E410
:01017000226C
:0F01F700750D0C750C0CD292C293D294C2952246
:0F020600750D0C750C0CC292D293C294D2952236
:0F021500750D05750C0FD294C295C292D293222B
:0F022400750D10750C08D292C293C294D2952218
:09023300C294C295C292C293224A
:10019200300118E508D3950D5004D2968002C2961C
:0E01A200E508C394144006E4F50822C2962234
:1001B000300018E50ED3950C5004D2978002C297F8
:0E01C000E50EC394144006E4F50E22C2972209
:03000B000201717E
:10017100C0E0C0D0758CFC758A18050AE50A7002CA
:1001810005090508050E1201921201B0D0D0D0E088
:01019100323B
:1001E6007C007D0A1200F8EF1F70011E144E70F796
:0101F60022E6
:10009A00E4F590758901758CFC758A18D28CD2A901
:1000AA00D2AF20A7447F0A7E001201E620A7F330D0
:1000BA00B40930B5061201F712014D30B40920B562
:1000CA000612021512014D30B50920B40612022497
:1000DA0012014D20B5CC20B4C912020612014D12EC
:0E00EA0002247F5A12015180B912023380B4F1
:0300000002000EED
:0C000E00787FE4F6D8FD758120020055D3
:1000F800BC000BBE0029EF8DF084FFADF022E4CCEC
:10010800F875F008EF2FFFEE33FEEC33FCEE9DECB4
:10011800984005FCEE9DFE0FD5F0E9E4CEFD22EDFA
:10012800F8F5F0EE8420D21CFEADF075F008EF2F44
:10013800FFED33FD4007985006D5F0F222C398FD35
:050148000FD5F0EA22D2
:10001A0002009AE493A3F8E493A34003F68001F262
:10002A0008DFF48029E493A3F85407240CC8C333E7
:10003A00C4540F4420C8834004F456800146F6DFB6
:10004A00E4800B01020408102040809001CEE47E77
:10005A00019360BCA3FF543F30E509541FFEE493AB
:10006A00A360010ECF54C025E060A840B8E493A372
:10007A00FAE493A3F8E493A3C8C582C8CAC583CA9D
:10008A00F0A3C8C582C8CAC583CADFE9DEE780BE55
:0101E5000019
:00000001FF
