:03000000020030CB
:100030007581701200731200BA748012009A9000D9
:10004000511200C974C012009A9000621200C98057
:10005000FE57656C636F6D6520746F204C434421BF
:1000600021004142434445464748494A4B4C4D4E86
:100070004F5000743812009A740E12009A740612CF
:10008000009A22C0E0C2B5D2B4C2B3D2B5E590C2E4
:10009000B520E7F1D0E01200C022120083C2B5C241
:1000A000B3C2B4D2B5F590C2B522120083C2B5D2A4
:1000B000B3C2B4D2B5F590C2B522740112009A222F
:1000C0007E057FF8DFFEDEFA22C0E0E493600612D0
:0800D00000AAA380F6D0E02293
:00000001FF
