:030000000200CA31
:0C00CA00787FE4F6D8FD7581200201115A
:10039500039F250D9949411F0119194615434440ED
:0403A5000D0E000F2A
:10037D00010800010D00011500010C00C180C181B3
:07038D00020A000001090152
:10030700E4FDFCC3ED9FEC9E5015E4FBFA0BBB002C
:0F031700010ABA07F8BBD0F50DBD00010C80E458
:0103260022B4
:0F03CC00750D0C750C0CD292C293D294C295226F
:0F03DB00750D0D750C0DC292D293C294D295225E
:0F03EA00750D06750C0ED294C295C292D2932255
:0F03F900750D0E750C06D292C293C294D2952246
:09041700C292C293C294C2952264
:10032700300118E508D3950D5004D2968002C29685
:0E033700E508C394144006E4F50822C296229D
:10034500300018E515D3950C5004D2978002C2975A
:0E035500E515C394144006E4F51522C2972264
:03000B000202E608
:1002E600C0E0C0D0758CFC758A18050BE50B700252
:1002F600050A05080515120327120345D0D0D0E0DC
:0103060032C4
:070363001204177F967E00D3
:10036A007D0A7C3200DCFDDDF9EF1F70011E144EA0
:02037A0070EE23
:01037C00225E
:1003BB007C007D0A12020BEF1F70011E144E70F7AA
:0103CB00220F
:0702C3001203CC7F0A7E004C
:1002CA00AB07AA060BBB00010AEB1B70011A144A02
:0C02DA0060097F847E031203BB80EE22CB
:1003A900AD071FED600BE4FEEEC3940D50F20E8015
:0103B900F74C
:0103BA002220
:0E0408007F307E75EF1FAC0670011E4C70F643
:0104160022C3
:10026000120417EF24FE601414601714601A24FCA3
:10027000601C2407701B1203630203CC1203630289
:1002800003DB1203630203F91203630203EA12049D
:02029000172233
:1001B50030B50A30B4071202C3D2A3804630B50D5C
:1001C50020B40A1203F97F2C7E011202CA30B40D45
:1001D50020B50A1203EA7F2C7E011202CA20B4233D
:1001E50020B520C2A31204177F2C7E011202CA1269
:1001F50003DB7F2C7E011202CA1203F97F907E0178
:060205001202CA0203CC44
:1002920020B70920B6061202C3C2A32220B7083033
:1002A200B6051203F9801630B70820B6051203EA24
:1002B200800B30B70B30B608D2A31204171202C655
:0102C2002219
:03001300020016D2
:0B001600C0E0C083C082C0D075D000E5
:10002100E4FCC2AA7F0F1203A930B305D2AA0200D1
:10003100C120B3077F011203A980F6751600751759
:100041000030B3077F011203A980F620B3077F01B7
:100051001203A980F630B3107F011203A90CECC37F
:10006100941E40F1D2AA8058740E2516F8C000E6FD
:10007100FFC313D000F6ECC394084009740E251693
:10008100F8E64480F67C000517E517C3940840B1F3
:100091000516E516C3940440A5E511F46510600446
:1000A100D2AA801C751600E51690039F93B5100522
:1000B100AF161202600516E516C3940A40E9D2AAEA
:0900C100D0D0D082D083D0E0320F
:10015600758901758CFC758A18D28CD2A9D2AFD25A
:100166008A20B20B1202C620B205050930B2FDE59F
:1001760009D394034003750901E50924FE601514AB
:100186006020240270DB900396E493F580120292BD
:10019600C2AA80CD900397E493F5801201B5C2AA56
:0F01A60080BF900398E493F580D2A3D2AA80B2D1
:1000D600020156E493A3F8E493A34003F68001F2E9
:1000E60008DFF48029E493A3F85407240CC8C3332B
:1000F600C4540F4420C8834004F456800146F6DFFA
:10010600E4800B010204081020408090037DE47E09
:10011600019360BCA3FF543F30E509541FFEE493EE
:10012600A360010ECF54C025E060A840B8E493A3B5
:10013600FAE493A3F8E493A3C8C582C8CAC583CAE0
:10014600F0A3C8C582C8CAC583CADFE9DEE780BE98
:010394000068
:10020B00BC000BBE0029EF8DF084FFADF022E4CCD7
:10021B00F875F008EF2FFFEE33FEEC33FCEE9DECA0
:10022B00984005FCEE9DFE0FD5F0E9E4CEFD22EDE6
:10023B00F8F5F0EE8420D21CFEADF075F008EF2F30
:10024B00FFED33FD4007985006D5F0F222C398FD21
:05025B000FD5F0EA22BE
:00000001FF
