:03000000020030CB
:030003000200698F
:030013000200796F
:1000300075817075A885D291D292C290D293D294D4
:10004000C2951196115C1189D290D291C292D2942C
:10005000D295C2931196115C118980DAD290D29216
:10006000C291D293D295C29422C290D291D292D20E
:1000700093D294C29530B2F132C293C292D291D24D
:1000800090D294D29530B3F1327D107EFF7FE1DFC4
:10009000FEDEFADDF6227D037EF07FF078F0D8FEFA
:0700A000DFFADEF6DDF222BB
:00000001FF
