:030000000200CA31
:0C00CA00787FE4F6D8FD7581200201115A
:10027800039F250D9949411F01191946154443400B
:040288000D0E000F48
:10025E00010800010D00011500010C00C181C182D1
:09026E0002090000010B00C100AF
:1001E800E4FDFCC3ED9FEC9E5015E4FBFA0BBB004D
:0F01F800010ABA07F8BBD0F50DBD00010C80E479
:0102070022D4
:0F029E00750D0C750C0CD292C293D294C295229E
:0902E900C292C293C294C2952294
:0F02AD00750D0C750C0CC292D293C294D295228F
:0F02BC00750D0C750C0CC292D293D294C2952280
:0F02CB00750D0C750C0CC294D295D292C2932271
:10020800300218E508D3950D5004D2968002C296A4
:0E021800E508C394144006E4F50822C29622BD
:10022600300118E515D3950C5004D2978002C29779
:0E023600E515C394144006E4F51522C2972284
:03000B000201A649
:1001A600C0E0C0D0758CFC758A18050AE50A700295
:1001B600050905080515120208120226D0D0D0E05E
:0101C6003206
:10028C00AD071FED600BE4FEEEC3940D50F20E8033
:01029C00F76A
:01029D00223E
:070244001202E97FF07E00C9
:10024B007D0A7C3200DCFDDDF9EF1F70011E144EC0
:02025B0070EE43
:01025D00227E
:0E02DA007F307E75EF1FAC0670011E4C70F673
:0102E80022F3
:100156001202E9EF24FE601A14602414602C146065
:10016600342404703A120244C2A012029E9002790C
:100176008029120244D2A01202AD90027A801C128B
:1001860002441202BC90027B80111202441202CB7E
:1001960090027C80061202E9900278E493F58022B0
:03001300020016D2
:0B001600C0E0C083C082C0D075D000E5
:10002100E4FCC2AA7F0F12028C30B305D2AA0200EF
:10003100C120B3077F0112028C80F6751600751777
:100041000030B3077F0112028C80F620B3077F01D5
:1000510012028C80F630B3107F0112028C0CECC3BB
:10006100941E40F1D2AA8058740E2516F8C000E6FD
:10007100FFC313D000F6ECC394084009740E251693
:10008100F8E64480F67C000517E517C3940840B1F3
:100091000516E516C3940440A5E511F46510600446
:1000A100D2AA801C751600E51690028293B5100540
:1000B100AF161201560516E516C3940A40E9D2AAF5
:0900C100D0D0D082D083D0E0320F
:1001C700C203D2AAD28AD2AF758901758CFC758A0F
:1001D70018D28CD2A9900278E493F5801202DA80C3
:0101E700FB1C
:1000D6000201C7E493A3F8E493A34003F68001F278
:1000E60008DFF48029E493A3F85407240CC8C3332B
:1000F600C4540F4420C8834004F456800146F6DFFA
:10010600E4800B010204081020408090025EE47E29
:10011600019360BCA3FF543F30E509541FFEE493EE
:10012600A360010ECF54C025E060A840B8E493A3B5
:10013600FAE493A3F8E493A3C8C582C8CAC583CAE0
:10014600F0A3C8C582C8CAC583CADFE9DEE780BE98
:010277000086
:00000001FF
