:03000000020030CB
:1000300075816012004A1200917C081200A074C001
:10004000120071740012008180FE74381200717405
:100050000C120071740612007122C0E0C2B5D2B455
:10006000C2B3D2B5E590C2B520E7F1D0E012009757
:100070002212005AC2B5C2B3C2B4D2B5F590C2B50D
:100080002212005AC2B5D2B3C2B4D2B5F590C2B5ED
:10009000227401120071227E057FF8DFFEDEFA2253
:1000A00074401200719000B1E493120081A3DCF857
:0900B0002204041F151F040400C2
:00000001FF
