:10015A00010800010C00010D00010B00C180C181E2
:04016A000209000086
:1000FE00E4FDFCC3ED9FEC9E5015E4FBFA0BBB0038
:0F010E00010ABA07F8BBD0F50DBD00010C80E463
:01011D0022BF
:0F016F00750C0F750B0FD292C293D294C29522CA
:0F017E00750C0F750B0FC292D293C294D29522BB
:0F018D00750C05750B0FD294C295C292D29322B6
:0F019C00750C10750B08D292C293C294D29522A3
:0901AB00C294C295C292C29322D3
:10011E00300118E508D3950C5004D2968002C29691
:0E012E00E508C394144006E4F50822C29622A8
:10013C00300018E50DD3950B5004D2978002C2976E
:0E014C00E50DC394144006E4F50D22C297227F
:03000B000200DD13
:1000DD00C0E0C0D0758CFC758A18050AE50A70025F
:1000ED0005090508050D12011E12013CD0D0D0E006
:0100FD0032D0
:10009A00E4F590758901758CFC758A18D28CD2A901
:1000AA00D2AF30B50320B4051201AB80F520B706F4
:1000BA0020B60312016F30B70620B60312018D3045
:1000CA00B60620B70312019C30B6D730B7D4120156
:0300DA00AB80CF29
:0300000002000EED
:0C000E00787FE4F6D8FD758120020055D3
:10001A0002009AE493A3F8E493A34003F68001F262
:10002A0008DFF48029E493A3F85407240CC8C333E7
:10003A00C4540F4420C8834004F456800146F6DFB6
:10004A00E4800B010204081020408090015AE47EEB
:10005A00019360BCA3FF543F30E509541FFEE493AB
:10006A00A360010ECF54C025E060A840B8E493A372
:10007A00FAE493A3F8E493A3C8C582C8CAC583CA9D
:10008A00F0A3C8C582C8CAC583CADFE9DEE780BE55
:01016E000090
:00000001FF
