:0CFF000063001E01000000000000000073
:030000000204EF08
:0C04EF0078FFE4F6D8FD75812E0204743D
:0B050700407924301912027800103FE8
:0C04FB00E4F584F58553A40F53A50F22EF
:0603EC008F158D168B1722
:1003F20078187C007D007BFF7A0579077E007F0BF1
:100402001200D37F01E51514FEEFA806088002C38F
:1004120033D8FCFFE516C3940B4003E4F5167418B9
:100422002516F8E6FEE517700474802EFE7D80E442
:10043200FBC2A5C2A5EF5D24FF92A6D2A5D2A5ED6F
:10044200C313FD0BBB08EA7D80E4FBC2A5C2A5EE87
:100452005D24FF92A6D2A5D2A5EDC313FD0BBB0866
:10046200EAC2A7C2A7C2A7C2A7D2A7D2A7D2A7D2BF
:01047200A7E2
:010473002266
:080320008F108E0F8D0E8C0D65
:10032800E47F0F7E27FDFCAB10AA0FA90EA80DD302
:100338001201C74009E4F510F50FF50EF50DE47B41
:10034800E87A03F9F8AF10AE0FAD0EAC0D12013517
:100358008F11AF10AE0FAD0EAC0DE47BE87A03F948
:10036800F8120135AC00AD01AE02AF038F108E0F4D
:100378008D0E8C0DE47B64FAF9F81201358F12AFFB
:1003880010AE0FAD0EAC0DE47B64FAF9F81201352E
:10039800AC00AD01AE02AF038F108E0F8D0E8C0D29
:1003A800E47B0AFAF9F81201358F13E47B0AFAF9AB
:1003B800F8AF10AE0FAD0EAC0D120135AF038F14B0
:1003C800E4FBAD117F011203ECE4FBAD127F0212D6
:1003D80003ECE4FBAD137F031203ECE4FBAD147FE5
:0403E800040203EC1C
:10020B00E4FF53917F53927F4391405392BF758983
:10021B0011F58FF588F58DF58BC297FED2970EBE33
:10022B000AFAC2973096057588408007E58830E753
:10023B00F37F01209605E4F5888005E58830E7F328
:10024B00AF8DE48F10F50FF50EF50DAE0FAD0EACB7
:10025B000D78081201D88F108E0F8D0E8C0DAF8B71
:10026B00E4FCFDFEE5102FF510EE350FF50FED3527
:10027B000EF50EEC350DF50DE47B89FAF9F8AF10A0
:10028B00AE0FAD0EAC0D1201358F148E138D128C7B
:10029B0011AF10AE0FAD0EAC0DE47B07FAF9F812EF
:1002AB0001358F108E0F8D0E8C0DC3E5109514F547
:1002BB0010E50F9513F50FE50E9512F50EE50D955F
:1002CB0011F50DE47B96FAF9F8AF10AE0FAD0EAC4D
:1002DB000D1201358F148E138D128C11AF10AE0FC2
:1002EB00AD0EAC0DE47B03FAF9F81201358F108ECD
:1002FB000F8D0E8C0DE5102514F510E50F3513F54C
:10030B000FE50E3512F50EE50D3511F50DAF10AEEF
:04031B000FAD0EFC18
:01031F0022BB
:100474001204FB12020B8F0C8E0B8D0A8C09E4F50F
:1004840008AF0CAE0BAD0AAC091203200508E50851
:07049400C394C840EC80DCBA
:1004D700E475265AF525F524F523782374FF1201D0
:0704E700EDEC4D4E4F70F3E8
:0104EE0022EB
:1004BE00E4752ACC752901F528F527782774FF12E3
:0804CE0001EDEC4D4E4F70F3FF
:0104D6002203
:10049B007B50AF031BEF601AE4752ECC752D01F565
:1004AB002CF52B782B74FF1201EDEC4D4E4F60E2C7
:0204BB0080F1CE
:0104BD00221C
:10000300E709F608DFFA8046E709F208DFFA803EDF
:1000130088828C83E709F0A3DFFA8032E309F608CC
:10002300DFFA8078E309F208DFFA807088828C8334
:10003300E309F0A3DFFA806489828A83E0A3F608E8
:10004300DFFA805889828A83E0A3F208DFFA804CC2
:1000530080D280FA80C680D4806980F28033801099
:1000630080A680EA809A80A880DA80E280CA803302
:1000730089828A83ECFAE493A3C8C582C8CCC5837A
:10008300CCF0A3C8C582C8CCC583CCDFE9DEE7804A
:100093000D89828A83E493A3F608DFF9ECFAA9F0C9
:1000A300EDFB2289828A83ECFAE0A3C8C582C8CC1F
:1000B300C583CCF0A3C8C582C8CCC583CCDFEADE38
:1000C300E880DB89828A83E493A3F208DFF980CC9A
:1000D30088F0EF60010E4E60C388F0ED2402B40493
:1000E3000050B9F582EB2402B4040050AF2323453A
:0600F3008223900053730C
:1000F90075F008758200EF2FFFEE33FECD33CDCCBE
:1001090033CCC58233C5829BED9AEC99E582984040
:100119000CF582EE9BFEED9AFDEC99FC0FD5F0D61D
:10012900E4CEFBE4CDFAE4CCF9A88222B800C1B947
:100139000059BA002DEC8BF084CFCECDFCE5F0CB85
:10014900F97818EF2FFFEE33FEED33FDEC33FCEBBE
:1001590033FB10D703994004EB99FB0FD8E5E4F979
:10016900FA227818EF2FFFEE33FEED33FDEC33FC66
:10017900C933C910D7059BE99A4007EC9BFCE99A5A
:10018900F90FD8E0E4C9FAE4CCFB2275F010EF2F9F
:10019900FFEE33FEED33FDCC33CCC833C810D7079F
:1001A9009BEC9AE899400AED9BFDEC9AFCE899F8DA
:0E01B9000FD5F0DAE4CDFBE4CCFAE4C8F9226D
:1001C700EB9FF5F0EA9E42F0E99D42F0E89C45F08E
:0101D7002205
:1001D800E8600FEFC333FFEE33FEED33FDEC33FC85
:0301E800D8F12229
:1001EB007401FF3395E0FEFDFC080808E6CF2FF6FF
:1001FB0018E6CE3EF618E6CD3DF618E6CC3CF622D8
:00000001FF
