:030000000200CE2D
:0C00CE00787FE4F6D8FD75812002011552
:1001DD00039F250D9949411F0119194615444340A7
:0401ED000D0E000FE4
:05023000010A00C100FD
:1001F100AD071FED600BE4FEEEC3940D50F20E80CF
:01020100F705
:0102020022D9
:0701A9001202037FF07E004B
:1001B0007D0A7C3200DCFDDDF9EF1F70011E144E5C
:0201C00070EEDF
:0101C200221A
:0E0003007F307E75EF1FAC0670011E4C70F64C
:0100110022CC
:09020300C292C293C294C295227A
:09020C00D292C293D294C2952251
:09021500C292D293C294D2952248
:09021E00D292C293C294D295223F
:09022700C292D293D294C2952236
:10015A00120203EF24FE601814602314602B14604B
:10016A0033240470391201A912020C9001DE802A8C
:10017A001200001201AC1202159001DF801C12015C
:10018A00A91202279001E080111201A912021E9001
:0F019A0001E180061202039001DDE493F580225B
:03001300020016D2
:0D001600C0E0C0F0C083C082C0D075D00033
:10002300E4FCC2AA7F0F1201F130B305D2AA020089
:10003300C320B3077F011201F180F6751200751317
:100043000030B3077F011201F180F620B3077F016F
:100053001201F180F630B3107F011201F10CECC3F1
:10006300941E40F1D2AA8058740B2512F8C000E602
:10007300FFC313D000F6ECC394084009740B251298
:10008300F8E64480F67C000513E513C3940840B1F9
:100093000512E512C3940440A5E50EF4650D600452
:1000A300D2AA801C751200E5129001E793B50D05E5
:1000B300AF1212015A0512E512C3940A40E9D2AAFB
:0B00C300D0D0D082D083D0F0D0E0324B
:1001C300C20175080B7509B8D2AAD28AD2AF9001C1
:0A01D300DDE493F58012000380FBC9
:1000DA000201C3E493A3F8E493A34003F68001F278
:1000EA0008DFF48029E493A3F85407240CC8C33327
:1000FA00C4540F4420C8834004F456800146F6DFF6
:10010A00E4800B0102040810204080900230E47E53
:10011A00019360BCA3FF543F30E509541FFEE493EA
:10012A00A360010ECF54C025E060A840B8E493A3B1
:10013A00FAE493A3F8E493A3C8C582C8CAC583CADC
:10014A00F0A3C8C582C8CAC583CADFE9DEE780BE94
:0102350000C8
:00000001FF
