:03000000020030CB
:03000B000200D61A
:10003000758901758A00758C00D2AFD2A9D28C75F2
:1000400081601202211200CC7480120248744112A5
:1000500002587481120248743A12025874891202CA
:10006000487442120258748A120248743A120258B2
:1000700074C0120248744312025874C112024874C8
:100080003A12025874C9120248744412025874CACF
:10009000120248743A12025875548278401200BB1A
:1000A00075548B78451200BB7554C2784A1200BB58
:1000B0007554CB784F1200BB0200987A05E55412B4
:1000C0000248E6243012025808DAF7227914784000
:1000D000E4F608D9FC22758A00758C00C2B7D2B646
:1000E00020B00912026E20B00312015820B109128B
:1000F000026E20B1031201DEC2B6D2B720B00912DF
:10010000026E20B00312011520B10912026E20B157
:100110000312019B32C0E0C0D00544E544B40A3369
:10012000754400E5432401F543B40A27754300E50F
:10013000422401F542B40A1B754200E5412401F551
:1001400041B40A0F754100E5402401F540B40A03AB
:10015000754000D0D0D0E022C0E0C0D00549E549CC
:10016000B40A33754900E5482401F548B40A2775F7
:100170004800E5472401F547B40A1B754700E546EA
:100180002401F546B40A0F754600E5452401F545FE
:08019000B40A03754500D0D04C
:10019800D0E022C0E0C0D0054EE54EB40A33754E1B
:1001A80000E54D2401F54DB40A27754D00E54C24B2
:1001B80001F54CB40A1B754C00E54B2401F54BB412
:1001C8000A0F754B00E54A2401F54AB40A03754A3B
:1001D80000D0D0D0E022C0E0C0D00553E553B40A27
:1001E80033755300E5522401F552B40A27755200BD
:1001F800E5512401F551B40A1B755100E55024015D
:10020800F550B40A0F755000E54F2401F54FB40AB4
:1002180003754F00D0D0D0E0227438120248740C15
:10022800120248740612024822C0E0C2B5D2B4C213
:10023800B3D2B5E590C2B520E7F1D0E012026E2244
:10024800120231C2B5C2B3C2B4D2B5F590C2B5225A
:10025800120231C2B5D2B3C2B4D2B5F590C2B5223A
:0F0268007401120248227E057FF8DFFEDEFA22C3
:00000001FF
