:03000000020030CB
:03000B000200F5FB
:10003000758901758AB0758C3CD2A9D28C75200067
:10004000D2AF75B07FE5B0B47F11D2B7119411CBA8
:10005000202804D2A70142C2A70142115F01423108
:100060000720B015C3E52204D4B46001E4F52211E1
:10007000CB311075B07F30B0EB20B10FC3E5230456
:10008000D4B42401E4F52311CB311075B07F30B125
:10009000EBD2B722E520B40A02D228B4142CC2282D
:1000A000752000E5212401D4F521B4601D752100DF
:1000B000E5222401D4F522B46010752200E5232442
:1000C00001D4F523B4240375230022E522540F90B4
:1000D000011793F58011FEE522C4540F93F590119A
:1000E000FEE523540F93F5A011FEE523C4540F93AE
:1000F000F5B011FE22758AB0758C3C0520327E0267
:100100007FFFDFFEDEFA227D107CFFDCFEDDFA22BF
:100110007B143107DBFC22C0F9A4B0999282F880ED
:07012000908883C6A1868EC2
:00000001FF
