:03000000020030CB
:03000B0002012EC1
:10003000758901758AB0758C3CD2A9D28C75200067
:10004000D2AF75816012014612018D748012016D6C
:100050009001AC12013774C012016D9001BD120104
:100060003774CC12016D9001BD12013775B07FE578
:10007000B0B47F08D2B711B511E5016C1180016CE5
:10008000319C20B015C3E52204D4B46001E4F5220C
:1000900011E531A575B07F30B0EB20B10FC3E5237A
:1000A00004D4B42401E4F52311E531A575B07F3003
:1000B000B1EBD2B722E520B4142A752000E5212443
:1000C00001D4F521B4601D752100E5222401D4F589
:1000D00022B46010752200E5232401D4F523B42452
:1000E000037523002274C412016DE523C4540F2448
:1000F0003012017DE523540F243012017D743A1231
:10010000017DE522C4540F243012017DE522540FF5
:10011000243012017D743A12017DE521C4540F246C
:100120003012017DE521540F243012017D22758AA1
:10013000B0758C3C052032C0E0E493600612017D6E
:10014000A380F6D0E022743812016D740C12016D98
:10015000740612016D22C0E0C2B5D2B4C2B3D2B5EA
:10016000E590C2B520E7F1D0E012019322120156CA
:06017000C2B5C2B3C2B427
:10017600D2B5F590C2B522120156C2B5D2B3C2B4F9
:10018600D2B5F590C2B522740112016D227E057FAB
:10019600F8DFFEDEFA227D107CFFDCFEDDFA227B34
:1001A60014319CDBFC222D2D4265696A696E67203D
:0C01B60054696D652D2D002D2D2D2D00A0
:00000001FF
