:03000000020142B8
:0C014200787FE4F6D8FD75810702000309
:1000030075BB70C29012010CC29112010CC2921204
:10001300010CC29312010CC29412010CC29512017D
:100023000CC29612010CC29712010C7590FFC2B05C
:1000330012010CC2B112010CC2B212010CC2B312F2
:10004300010CC2B412010CC2B512010CC2B61201EA
:100053000CC2B712010C75B0FFC2A012010CC2A1F1
:1000630012010CC2A212010CC2A312010CC2A412EF
:10007300010CC2A512010CC2A612010CC2A71201E7
:100083000C75A0FFC28712010CC28612010CC28537
:1000930012010CC28412010CC28312010CC282121F
:1000A300010CC28112010CC28012010C7580FFC2C7
:1000B300C012010CC2C112010CC2C212010CC2C394
:1000C30012010CC2C412010CC2C512010CC2C61229
:1000D300010CC2C712010C75C0FFE4F59012010CAC
:1000E3007590FFE4F5B012010C75B0FFE4F5A012B2
:1000F300010C75A0FFE4F58012010C7580FFE4F597
:09010300C012010C75C0FF80D18F
:10010C007EEA7F600000000000000000000000009C
:10011C0000000000000000000000000000000000D3
:10012C00000000000000000000000000EF1F700144
:05013C001EEF4E70CF24
:01014100229B
:00000001FF
