:10015100010800010C00010D00010B00C180C181EB
:04016100020900008F
:1000F500E4FDFCC3ED9FEC9E5015E4FBFA0BBB0041
:0F010500010ABA07F8BBD0F50DBD00010C80E46C
:0101140022C8
:0F016600750C0C750B0CD292C293D294C29522D9
:0F017500750C0C750B0CC292D293C294D29522CA
:0F018400750C05750B0FD294C295C292D29322BF
:0F019300750C10750B08D292C293C294D29522AC
:0901A200C294C295C292C29322DC
:10011500300118E508D3950C5004D2968002C2969A
:0E012500E508C394144006E4F50822C29622B1
:10013300300018E50DD3950B5004D2978002C29777
:0E014300E50DC394144006E4F50D22C2972288
:03000B000200D41C
:1000D400C0E0C0D0758CFC758A18050AE50A700268
:1000E40005090508050D120115120133D0D0D0E021
:0100F40032D9
:10009A00E4F590758901758CFC758A18D28CD2A901
:1000AA00D2AF20B70820B60512016680F530B70630
:1000BA0020B60312018430B60620B703120193302A
:0A00CA00B6E030B7DD1201A280D8C5
:0300000002000EED
:0C000E00787FE4F6D8FD758120020055D3
:10001A0002009AE493A3F8E493A34003F68001F262
:10002A0008DFF48029E493A3F85407240CC8C333E7
:10003A00C4540F4420C8834004F456800146F6DFB6
:10004A00E4800B0102040810204080900151E47EF4
:10005A00019360BCA3FF543F30E509541FFEE493AB
:10006A00A360010ECF54C025E060A840B8E493A372
:10007A00FAE493A3F8E493A3C8C582C8CAC583CA9D
:10008A00F0A3C8C582C8CAC583CADFE9DEE780BE55
:010165000099
:00000001FF
