:0CFF000063001E01000000000000000073
:0300000002062BCA
:0C062B0078FFE4F6D8FD7581300204155C
:0B064300407924301912027800103FAB
:0300230002058B48
:10058B00C0E0C0D0C298859927E52570078527263E
:10059B0005258017E525B401088527287525968044
:1005AB000AE525B464058527240525D0D0D0E03293
:08064E00C2998F993099FD2239
:1005DE0075985075BA6075BEF075BF0275BD03E4AF
:0C05EE00F5917592FDD2ACD2AFF525223C
:1000030043A40753A5F812061320A0037F0122205F
:0E001300A1037F022220A2037F03227F00228E
:0C063700E4F584F58553A40F53A50F22B1
:0604B7008F168D178B1853
:1004BD0078197C007D007BFF7A0679437E007F0BE7
:1004CD001200F67F01E51614FEEFA806088002C3A0
:1004DD0033D8FCFFE517C3940B4003E4F5177419EB
:1004ED002517F8E6FEE518700474802EFE7D80E475
:1004FD00FBC2A5C2A5EF5D24FF92A6D2A5D2A5EDA4
:10050D00C313FD0BBB08EA7D80E4FBC2A5C2A5EEBB
:10051D005D24FF92A6D2A5D2A5EDC313FD0BBB089A
:10052D00EAC2A7C2A7C2A7C2A7D2A7D2A7D2A7D2F3
:01053D00A716
:01053E00229A
:06034300AF0DAE0CAD0B86
:080349008F118E108D0F8C0E38
:10035100E47F0F7E27FDFCAB11AA10A90FA80ED3D5
:100361001201EA4009E4F511F510F50FF50EE47BF1
:10037100E87A03F9F8AF11AE10AD0FAC0E120158C7
:100381008F12AF11AE10AD0FAC0EE47BE87A03F91A
:10039100F8120158AC00AD01AE02AF038F118E10FF
:1003A1008D0F8C0EE47B64FAF9F81201588F13AFAC
:1003B10011AE10AD0FAC0EE47B64FAF9F8120158DE
:1003C100AC00AD01AE02AF038F118E108D0F8C0EFC
:1003D100E47B0AFAF9F81201588F14E47B0AFAF95E
:1003E100F8AF11AE10AD0FAC0E120158AF038F155F
:1003F100E4FBAD127F011204B7E4FBAD137F0212DF
:1004010004B7E4FBAD147F031204B7E4FBAD157F21
:04041100040204B726
:10053F00EFC3942D400974D32FFF7510018008C3AA
:10054F00742D9FFFE4F510EFD394634002E4FFEFA7
:10055F0075F00A84F50EEF75F00A8485F00FE5103B
:10056F007008FB7D0A7F061204B7E4FBAD0E7F0710
:0C057F001204B7E4FBAD0F7F080204B7C4
:10022E00E4FF53917F53927F4391405392BF758960
:10023E0011F58FF588F58DF58BC297FED2970EBE10
:10024E000AFAC2973096057588408007E58830E730
:10025E00F37F01209605E4F5888005E58830E7F305
:10026E00AF8DE48F11F510F50FF50EAE10AD0FAC8E
:10027E000E78081201FB8F118E108D0F8C0EAF8B26
:10028E00E4FCFDFEE5112FF511EE3510F510ED3500
:10029E000FF50FEC350EF50EE47B89FAF9F8AF1178
:1002AE00AE10AD0FAC0E1201588F158E148D138C2F
:1002BE0012AF11AE10AD0FAC0EE47B07FAF9F812C7
:1002CE0001588F118E108D0F8C0EC3E5119515F5FB
:1002DE0011E5109514F510E50F9513F50FE50E9534
:1002EE0012F50EE47B96FAF9F8AF11AE10AD0FAC25
:1002FE000E1201588F158E148D138C12AF11AE1075
:10030E00AD0FAC0EE47B03FAF9F81201588F118E83
:10031E00108D0F8C0EE5112515F511E5103514F520
:10032E0010E50F3513F50FE50E3512F50EAF11AEC4
:04033E0010AD0FFCF3
:010342002298
:08065600E4F5257F5502064E74
:08065E007525647F5002064E71
:100415001206371205DE1200038F08E508B4011E27
:1004250012022E8F0D8E0C8D0B8C0AE4F509AC0A89
:100435001203430509E509C394C840F280E2E508C3
:1004450064027051F526F528120656E4F509E4858F
:10045500260DF50CF50BF50AAF0DAE0CAD0BAC0A80
:1004650078081201FB8F0D8E0C8D0B8C0AE4FCFDB8
:10047500FEE50D2528F50DEE350CF50CED350BF5E6
:100485000BEC350AF50AFC1203430509E509C3948B
:100495006440BB80B3E508B4031612065EE4F509B3
:1004A500AF2412053F0509E509C3946440F280EACB
:0204B50080FEC7
:10061300E475115AF510F50FF50E780E74FF1202FA
:0706230010EC4D4E4F70F387
:01062A0022AD
:1005FA00E4752CCC752B01F52AF529782974FF129C
:08060A000210EC4D4E4F70F39D
:0106120022C5
:1005BB007B50AF031BEF601AE47530CC752F01F540
:1005CB002EF52D782D74FF120210EC4D4E4F60E27C
:0205DB0080F1AD
:0105DD0022FB
:10002600E709F608DFFA8046E709F208DFFA803EBC
:1000360088828C83E709F0A3DFFA8032E309F608A9
:10004600DFFA8078E309F208DFFA807088828C8311
:10005600E309F0A3DFFA806489828A83E0A3F608C5
:10006600DFFA805889828A83E0A3F208DFFA804C9F
:1000760080D280FA80C680D4806980F28033801076
:1000860080A680EA809A80A880DA80E280CA8033DF
:1000960089828A83ECFAE493A3C8C582C8CCC58357
:1000A600CCF0A3C8C582C8CCC583CCDFE9DEE78027
:1000B6000D89828A83E493A3F608DFF9ECFAA9F0A6
:1000C600EDFB2289828A83ECFAE0A3C8C582C8CCFC
:1000D600C583CCF0A3C8C582C8CCC583CCDFEADE15
:1000E600E880DB89828A83E493A3F208DFF980CC77
:1000F60088F0EF60010E4E60C388F0ED2402B40470
:100106000050B9F582EB2402B4040050AF23234516
:06011600822390007673C5
:10011C0075F008758200EF2FFFEE33FECD33CDCC9A
:10012C0033CCC58233C5829BED9AEC99E58298401D
:10013C000CF582EE9BFEED9AFDEC99FC0FD5F0D6FA
:10014C00E4CEFBE4CDFAE4CCF9A88222B800C1B924
:10015C000059BA002DEC8BF084CFCECDFCE5F0CB62
:10016C00F97818EF2FFFEE33FEED33FDEC33FCEB9B
:10017C0033FB10D703994004EB99FB0FD8E5E4F956
:10018C00FA227818EF2FFFEE33FEED33FDEC33FC43
:10019C00C933C910D7059BE99A4007EC9BFCE99A37
:1001AC00F90FD8E0E4C9FAE4CCFB2275F010EF2F7C
:1001BC00FFEE33FEED33FDCC33CCC833C810D7077C
:1001CC009BEC9AE899400AED9BFDEC9AFCE899F8B7
:0E01DC000FD5F0DAE4CDFBE4CCFAE4C8F9224A
:1001EA00EB9FF5F0EA9E42F0E99D42F0E89C45F06B
:0101FA0022E2
:1001FB00E8600FEFC333FFEE33FEED33FDEC33FC62
:03020B00D8F12205
:10020E007401FF3395E0FEFDFC080808E6CF2FF6DB
:10021E0018E6CE3EF618E6CD3DF618E6CC3CF622B4
:00000001FF
