:03000000020030CB
:100030007581601200831200CA7C401200D974805E
:100040001200AA7904E412007C74C01200AA790498
:10005000740412007C74841200AA90012A12006DAC
:1000600074C41200AA90013712006D80FEC0E0E453
:100070009360061200BAA380F6D0E0221200BA0400
:10008000D9FA2274381200AA740C1200AA7406124B
:1000900000AA22C0E0C2B5D2B4C2B3D2B5E590C2C4
:1000A000B520E7F1D0E01200D022120093C2B5C211
:1000B000B3C2B4D2B5F590C2B522120093C2B5D284
:1000C000B3C2B4D2B5F590C2B52274011200AA220F
:1000D0007E057FF8DFFEDEFA2274401200AA90004F
:1000E000EAE4931200BAA3DCF822030408101F0408
:1000F00004001F0000001F0000001F0000001F0080
:100100000000180402011F0404000404040404078E
:1001100000000F141414141F10001E050505051F00
:10012000010004040404041C00002057656C636F84
:100130006D6520746F2000204C4344204D6F6E6924
:04014000746F720066
:00000001FF
