:020000000130CD
:1000300078FF90007B30A01430A11A30A22030A3AA
:100040002630A72DB8FF020135E8237311B920A08F
:10005000E47800013511B920A1DB7801013511B92F
:1000600020A2D27802013511B920A3C97803020079
:10007000351200B920A7BE78040135018501900131
:100080009B01A601B1E59025B0F9E43400FB0135F0
:10009000E590C395B0F9E433FB0135E59085B0F008
:1000A000A4F9ABF00135E59085B0F084F9ABF0012F
:1000B0003589908BB011B901357D0B7F027EFFDE53
:0600C000FEDFFADDF6226E
:00000001FF
