:03000000020030CB
:100030007581601200A11200E874801200C8E5A06A
:10004000F430E10F1200EE30E10990010912009244
:1000500002003930E20F1200EE30E20990011B126B
:10006000009202003930E30F1200EE30E3099001F4
:100070002D12009202003930E40F1200EE30E40934
:1000800090013F1200920200399000F71200920294
:100090000039C0E0E49360061200D8A380F6D0E0F7
:1000A0002274381200C8740C1200C874061200C8FA
:1000B00022C0E0C2B5D2B4C2B3D2B5E590C2B52079
:1000C000E7F1D0E01200EE221200B1C2B5C2B3C215
:1000D000B4D2B5F590C2B5221200B1C2B5D2B3C246
:1000E000B4D2B5F590C2B52274011200C8227E05C3
:1000F0007FF8DFFEDEFA222048656C6C6F2D4E6FB4
:10010000726D616C2021212100204F766572207470
:10011000656D702E203F3F3F3F3F00204F76657258
:10012000207370656564203F3F3F3F3F00204E6F66
:1001300074207761746572203F3F3F3F3F3F00204E
:100140004E6F74206F696C203F3F3F3F3F3F3F3F02
:0101500000AE
:00000001FF
