:10115500C7EBC4E3CAE4C8EBC1BDB8F658BACD596C
:0E1165000A0025662C2566007A3D25660A00E4
:1010A400759850758920758DFD758BFDD299D28EFA
:1010B4007BFF7A1179551206F47532007533007589
:1010C40034237535007536007537277BFF7A11791F
:1010D40067120B83E4F522AC22E41202AB7BDA7ACA
:1010E4000F794978401200FBE4FBFAF978431202C5
:1010F40004120EAEE4FBFAF978441200FBE4FBFAA6
:10110400F9784412000A8F2E8E2D8D2C8C2B7BFFA8
:101114007A11796D8F358E348D338C321206F40545
:0A11240022E522C394FF40AF80864D
:10000300020314E86480F8E933E83360110460F014
:10001300ED33EC337009E8FCE9FDEAFEEBFF220463
:1000230060DED3EB9FEA9EE99DE8C2E78CF0C2F75E
:1000330095F0400CE8CCF8E9CDF9EACEFAEBCFFB2A
:100043001202DF85D0F05804700320D5B3E80470A2
:10005300075002B2D502031E92D5EC0460F7E4CC3C
:10006300C0E0C398F8603B94186008400DD0E0FBF3
:100073000202F6E4FBFAC9FC8028E830E406E4C98E
:10008300FBE4CAFCE830E305E4C9CACBFCE8540747
:100093006010F8C3E913F9EA13FAEB13FBEC13FC52
:1000A300D8F130F52FC3E49CFCEF9BFFEE9AFEEDF5
:1000B30099FDD0E0FBEF4E4D4C701222DB0302039F
:1000C3001BEC2CFCEF33FFEE33FEED33FDED30E79D
:1000D300EB0202F6EF2BFFEE3AFEED39FDD0E0FB2B
:1000E30050130BBB000302031EED13FDEE13FEEFD3
:0800F30013FFEC13FC0202F6FE
:1000FB00EC4D6011E8497017ED33EC3304600DE4FF
:10010B00FCFFFEFD22E933E8330470F802031412FE
:10011B0002DF58046009E4CC248150062850090200
:10012B00031E28400302031BC0E0EB4A7044B98056
:10013B0006D0E0FB02030AEF4E701CBD8008EBFFFC
:10014B00EAFEE9FD80EBE98DF0A4FEE5F00201E4A7
:10015B00E9CDF9EAFEEBFFEF89F0A4FCE5F0CE89DF
:10016B00F0A42EFFE435F0CD89F0A42DFEE435F09C
:10017B008067EF4E7005BD80D780C3EF8BF0A4ACCA
:10018B00F0EE8BF0A42CFCE435F0F8EF8AF0A42C05
:10019B00E5F038FCE433CB8DF0A42CFCE5F03BF818
:1001AB00EE8AF0A42CFCE5F038F8E433CF89F0A408
:1001BB002CFCE5F038CF3400CE89F0A42FFFE5F00E
:1001CB003EFEE433C98DF0A42EFEE5F039CD8AF066
:1001DB00A42FFFE5F03EFEE43DFD33D0E0FB5007DE
:1001EB000BBB000F02031EEC2CFCEF33FFEE33FEB8
:0601FB00ED33FD0202F6E7
:1002010002031EEC5D046005E85904700302031447
:100211001202DF580460F6EC4860F2EC7004FDFE57
:10022100FF22C860DB2481C85009C39860025006D0
:1002310002031B9850CAF582E9294B4A7005AB822B
:1002410002030A75F0007C1A7880C3EF9BEE9AEDE9
:1002510099400DC3EF9BFFEE9AFEED99FDE842F048
:10026100DC23ACF0D0E0FFD0E0FED0E0FDAB82209B
:10027100E7101BEB60BAEC2CFCEF33FFEE33FEED25
:1002810033FD0202F6E803F830E705C0F075F0002F
:10029100EF2FFFEE33FEED33FD40B830E7C280AA09
:1002A10075F020800E75F010800575F0087D007ED8
:1002B100007F003392D530D5031205D7EC334010BF
:1002C100EF33FFEE33FEED33FDEC33FCD5F0ED22E1
:0E02D100E5F0247EA2D513CC92E7CDCEFF221D
:10069200E5462432F8E6054622782F300702783202
:1006A200E475F0011206280205602000EB7F2ED2CD
:1006B200008018EF540F2490D43440D4FF30040B40
:1006C200EF24BFB41A0050032461FFE5476002150E
:1006D20047054AE54A7002054930070D782FE4754F
:1006E200F001120628EF0205A602112E7403D207AA
:1006F2008003E4C207F5468B2F8A308931E4F5473F
:10070200F549F54AE54760077F201206CD80F57569
:1007120048FFC201C200C202C203C205C206C20829
:1007220012069BFF700D3007057F001206DEAF4AEE
:10073200AE4922B4255FC2D5C20412069BFF24D063
:10074200B40A00501A75F00A784730D50508B6FF8A
:100752000106C6A426F620D5047002D20380D9244D
:10076200CFB41A00EF5004C2E5D2040209CBD20181
:1007720080C6D20080C0D20280BCD2D580BAD20557
:1007820080B47F201206CD2002077401B5470040D5
:10079200F1120692FF1206CD020706D208D2068097
:1007A20095120692FB120692FA120692F94A4B70C1
:1007B2000679C27A0A7BFF20022EE547602A7E0074
:1007C2008E8275830012057960060EEE654870F020
:1007D200C2D5EBC0E0EAC0E0E9C0E0EE120A2BD0DD
:1007E200E0F9D0E0FAD0E0FB120560FF60AAEBC0AE
:1007F200E0EAC0E0E9C0E01206CDD0E02401F9D081
:10080200E03400FAD0E0FBE5480460DCD548D9804A
:1008120087D20280A2120A0E60F7E5487001041224
:100822000360A948600DE548600914F548120AB54D
:10083200EF60F3EA30E702F404C3995077EAF42553
:10084200480430E701E404F548800D120A0E60C145
:10085200EA05482548120360EA7845F630E701E4E4
:10086200254804D5480420050114120A2BE4C0E0EF
:10087200120AB57845E6601320E70714F61206B5AA
:10088200802204F6D0E014C0E07F001206B5E548ED
:1008920060071206AC1548800B3005031206ACD077
:1008A200E0020706D0E00480C5120A0E60A0E54807
:1008B200041203607845EAF6E54820050260010467
:0508C2002404120A2BC2
:1008C70074FF04C0E0120AB51206B5E54820050218
:1008D70060031206ACD0E0B548E87F451206BF7842
:1008E70045E67F2B30E7047F2DF404C0E01206CDE8
:1008F700D0E075F00A84C0F01206B6D0E01206B652
:10090700020706791080027908C206C2088008D259
:10091700D5790A8004790AC2D5E548047002F548FA
:10092700E4FAFDFEFF120692FC7B08200113120673
:1009370092FD7B1030000A120692FE120692FF7B90
:1009470020EC3382D592D55013C3E43000069FFFC5
:10095700E49EFEE42001039DFDE49CFCE4CBF8C289
:1009670001EC700CCFCECDCCE824F8F870F38017EB
:10097700C3EF33FFEE33FEED33FDEC33FCEB33FB1C
:10098700994002FB0FD8E9EB300105F8D0E0C448E5
:10099700B201C0E00AEC4D4E4F78207B0070C2EAEE
:1009A700B5480040BCC0E0120A2DD0F0D0E02001CD
:1009B70004C4C0E0C4B201C0F01206B6D0F0D5F04E
:1009C700EB02070612064807A353090A5807744C97
:1009D700077042090E4F091644091649078943094A
:1009E7001C55084D4608AB450817470AE2500778DB
:1009F7002D077C2E079F2B078023079D200ACB2AD4
:100A070007384800000797E548B4FF037548061202
:100A17000692FC120692FD120692FE120692FF78CB
:100A27003E02038F790AA2D5200314300509B910B5
:100A3700020404B9080104A2D520060250010420CB
:100A470002689202B547005034C0E07F2030031996
:100A57007F30A20272067205500F120A84C202C2C8
:100A670006C205C2087F30800F300503E9C0E012D7
:100A770006CD300503D0E0F9D0E0B547CC300517F7
:100A87007F30B9100C1206CD7F583004077F78806D
:100A970003B908031206CD3002057F2D0206CD7F6C
:100AA700202008F87F2B2006F322920280CF7F00B8
:100AB700B407005005243EF8E6FF22286E756C6CDB
:100AC7002900D2011206923001F8C201784730D5C9
:100AD7000108F60207382D5043495812069224039D
:100AE700B405004001E4900ADD931206BE743A1281
:0A0AF70006BED20375470402090A87
:100B0100E54430030104F823282432F822782F30F9
:100B110003027832E475F00112062802056060ECE8
:100B2100C5487002154714C548200304FF0211ADE2
:100B3100782F74FFF5F0020638FF021173E5456066
:100B410006D545037F002220030F121186EF6008AE
:100B51000548E5487002054722782F12061F120545
:100B610060FF60E9782FE475F00112062880DE123B
:100B71000B48EFC0E0120B3AD0E040F380A0D20363
:100B81008002C2038B2F8A308931E4F546F544F5A2
:100B910047F548754500C202C200C201C204120BEA
:100BA1000EFF7005AF467E0022B42530120B0EFFFA
:100BB10024D0B40A00500C75F00AC545A42545F5AA
:100BC1004580E924CFB41A00EF5002C2E5020E1CA1
:100BD100D20180D8D20080D4D20480D0EF120B3A57
:100BE1005008120B70EF600E80A9EFC0E0120B48A5
:100BF100D0E06F609EEF6074120B1F80A7120B484C
:100C0100EF6069E545700705458003120B48EF6009
:100C11001420040E120B01E475F001120628EF12E4
:100C210005A6D545E62004040544054680BA120B05
:100C31003EEFC0E0120B3AD0E05004120B1FE4FF6C
:100C410020040E120B01E475F001120628EF1205C3
:100C5100A6EF70DA20040405440546808BE5456063
:100C6100020545120B70120B3EEF70C6300304E40F
:100C7100120B1FE5466003020BA57EFF7FFF22E5F5
:100C81004560020545120B70D206D205120B3EEFEC
:100C910030060260D7C0E0120B1FD0E0AC49AD4A6C
:100CA100AE4BAF4C120FD18C498D4A8E4B8F4C50AD
:100CB10007120B48C20580D4200410200502054606
:080CC100120B0112061F05448D
:100CC9001205E5020B94D0E0809A7900800A791028
:100CD900800679088002790AD205E5456002054552
:100CE900E9C0E0120B70EF60DD120B48BF2D04D292
:100CF900028003BF2B09120B70EF60CA120B3ED0A2
:100D0900E0B40A028033B40802802EBF3027700293
:100D19007408C205C0E0120B3ED0E0BF7802800320
:100D2900BF58160545D545028007D54504D205802B
:100D39000B741080197002740ABF000AEFF8E4FC02
:100D4900FDFEFF020DCFC0E0EF120B1FD0E0F9E46A
:100D5900FCFDFEFFE9C0E0ECC0E0EDC0E0EEC0E064
:100D6900EFC0E0120B3EEFF8D0E0FFD0E0FED0E09C
:100D7900FDD0E0FCD0F0E8604DB461004007B47BE1
:100D8900005002C2E524D0503DFA24F6500724F958
:100D99005034240AFAEAB5F000502BCFA9F0A42F59
:100DA900FF92D5E9C5F0CEA4A2D53EFE92D5E9C5FC
:100DB900F0CDA4A2D53DFD92D5E9C5F0CCA4A2D52C
:100DC9003CFCC205808EE8C0E020042A2005080505
:100DD900463002031205D7120B0112061F054420E3
:100DE900000B20010DEE8FF01205B880091205E500
:100DF9008004EF1205A6D0E0120B1F020B94200409
:100E090010120B0112061F0544E5478548F012052B
:100E1900B880E81206480C5E530CD7580BD54C0B1A
:100E2900D1420BAD480CDB4F0CDF440BFE430CD316
:100E3900490CDF550C80460C80450C80470BD92A9C
:070E49000E074E00000BDD57
:100E50003A70FA83BCAAE9E43E81E0F8BF9DE9E676
:100E60003F80000039283C1ABB9969663DA335E3F1
:100E7000BF255DE73FC90FDB418DDBCCC44936EEB2
:100E800045C9913FC5B0F83D3F800000C317F53418
:100E9000452FFA73C60AFDDD120F3F04A2E192004E
:100EA0001420E015900E5074041204928026120F44
:100EB0003F30E102B20020E0EB8C2F8D308E318F7D
:100EC00032900E647404120492A82FA930AA31AB98
:100ED000321200FBED4C6007300004EC6480FC2211
:100EE000120F3FC0E08C2F8D308E318F32900E88E4
:100EF0007403120492A82FA930AA31AB321200FB5E
:100F0000ECC52FFCEDC530FDEEC531FEEFC532FF5F
:100F1000900E787403120492D082A82FA930AA31BF
:100F2000AB32E58230E007120204B20080A6EFCBBC
:100F3000FFEECAFEEDC9FDECC8FC1202048095ED7F
:100F400033EC547FCC33920024605007D0E0D0E0E3
:100F50000203147B837AF97922783E1200FBEDF9C3
:100F600033ECF83324815011EFFBEEFA120329120F
:100F700002A1ECB2E7FC12000AED33EC33602F243F
:100F800003F8C313FCED92E7FDE82481E4501FEC65
:100F9000F8EDF9EEFAEFFB120329EF04C2E0FCF5DD
:100FA000821202ABECB2E7FC12000AE58203FAED12
:0E0FB00033EC3360071413FCED92E7FDEA22E8
:1002DF00E9D2E7C933E833F892D5EDD2E7CD33EC65
:0702EF0033FC5002B2D522DE
:1002F600EC30E7100FBF000C0EBE00080DBD000469
:100306000BEB6014A2D5EB13FCED92E7FD2274FF14
:10031600FCFDFEFF22E480F8A2D574FF13FC7D806D
:03032600E480EF81
:10032900EDD2E7CD33EC3392D524814006E4FFFECC
:10033900FDFC22FCE4CFCECDCC24E0501174FF802B
:10034900EDC3CC13CCCD13CDCE13CECF13CF0470C8
:07035900F030D5DE0205D7EC
:10036000F920E72824F950037907E4F42402FB1864
:10037000DBFDE624FB5014E9600DE4F618E604F614
:0F038000B40A08E4F6D9F57401F60A22C2D522B0
:10038F00ED33EC3392D5FA602AB4FF33EDC2E77B3D
:10039F00FF60067A0379B4E4227A0379BD20D5048D
:1003AF007A0379B8224E614E002B494E46002D49F3
:1003BF004E4600E47A08F608DAFC7B00740722E860
:1003CF00C0E0ECC0E0EDC0E0EEC0E0EFC0E0EA75E9
:1003DF00F010A4CAABF075F04DA42BFBE435F0FC84
:1003EF00EA2410FAEB34C5FBEC34D9FCEDC2E7FF7D
:1003FF0075F056A4F42411C5F0F434C58FF0A42A77
:10040F00E5F03BE43CF620E714120520D0E0FFD0E6
:10041F00E0FED0E0FDD0E0FC1202048014F40412E0
:10042F000520D0E0FFD0E0FED0E0FDD0E0FC1200D0
:10043F00FBD0E0F8E6FAEDD2E7CD33EC332482FBC4
:10044F00E4C3CF33CFCE33CECD33CD33DBF37B0706
:10045F0075F00A846004F6081B0AE5F0F6088FF0C1
:10046F00740AA4FFACF08EF0740AA42CFEACF0500A
:10047F00010C8DF0740AA42CFDE435F0F608DBDED8
:03048F00740722CD
:100FBE00C207C208C209C20AF9E4F54DF54EFCFD9E
:100FCE00FEFFE91006EA20090CB42D04D209D32243
:100FDE00B42B02D32224D0504794095041240A3016
:100FEE000A15F8854EF0740AA42872E74051C5F030
:100FFE00704D85F04ED322D208C0E0E4FBFA792082
:10100E0078411200FBECF8EDF9EEFAEFFBD0E0FCC4
:10101E00E41202AB12000A3007B4154DD322240A93
:10102E00200A20B4FE0720071AD207D32224EB6031
:10103E000424E0700EA2099207D20AC209D322C379
:10104E00020314E4300A0BE54E300902F404A20741
:10105E0092093008EA254D20D2E5A2E7920A500205
:10106E00F404B4260050D8CCC0E0EDC0E0EEC0E0F1
:10107E00EFC0E0EC120520D0E0FFD0E0FED0E0FDA6
:10108E00D0E0FC200A051200FB8003120204300996
:06109E00031204DFC3226F
:10049200C0E0EFFBEEFAEDF9ECF81200FBD0E0F56C
:1004A200F0EFFBEEFAEDF9ECF81205FFA3A3A3A31C
:1004B200E8C0E0E9C0E0EAC0E0EBC0E0C0F0120052
:1004C200FB12060FA3A3A3A312000AD0F0D0E0FBF5
:0D04D200D0E0FAD0E0F9D0E0F8D5F0D42267
:1004DF00ED33EC33600A047003BD8004ECB2E7FC2B
:0104EF0022EA
:1004F0003F8000004120000042C80000447A000014
:10050000461C400047C35000497424004B18968095
:100510004CBEBC205A0E1BCA6753C21C749DC5AE8C
:10052000FB60065407601C232312054EEB54386011
:100530000912053A1205491200FBECF8EDF9EEFA42
:10054000EFCB22EB12054980F1543803241C9004B0
:10055000F0FE93FC0EEE93FD0EEE930ECE93FF2273
:0300000002119753
:0C119700787FE4F6D8FD75814E0210A4AC
:10056000BB010689828A83E0225002E722BBFE0299
:09057000E32289828A83E49322CC
:10057900BB010CE58229F582E5833AF583E0225037
:1005890006E92582F8E622BBFE06E92582F8E22281
:0D059900E58229F582E5833AF583E493229B
:1005A600BB010689828A83F0225002F722BBFE0134
:0205B600F3222E
:1005B800BB010A89828A83F0E5F0A3F0225006F78E
:0F05C80009A7F01922BBFE06F3E5F009F319228B
:0E05D700C3E49FFFE49EFEE49DFDE49CFC2235
:1005E500BB010789828A8302067A5005E9F802066B
:0A05F5006EBBFE05E9F8020686223F
:1005FF00E493FC740193FD740293FE740393FF2242
:10060F00E493F8740193F9740293FA740393FB2241
:09061F00E6FB08E6FA08E6F92200
:10062800FAE6FB0808E6F925F0F618E6CA3AF622D3
:10063800FAE6FB0808E625F0F9F618E63AFAF62293
:10064800D083D082F8E4937012740193700DA3A341
:1006580093F8740193F5828883E473740293686055
:06066800EFA3A3A380DF55
:10112E00EFB40A07740D121139740A309811A89988
:10113E00B8130CC2983098FDA899C298B811F63021
:07114E0099FDC299F59922F9
:10118600100B0B1211A3BF0D027F0A02112EAF081E
:011196002236
:0511AD008F08D20B22A7
:10117300EFC394094005EF940E4003BF2003D380CF
:0311830001C32283
:0C066E00ECF608EDF608EEF608EFF622B8
:0C067A00ECF0A3EDF0A3EEF0A3EFF022F3
:0C068600ECF208EDF208EEF208EFF222B0
:0A11A3003098FDAF99C2987E00223B
:00000001FF
